:020000040000FA
:10000000C01C0010E1000000E9000000EB0000004F
:10001000ED000000EF000000F10000000000000013
:10002000000000000000000000000000F3000000DD
:10003000F500000000000000F7000000F9000000DB
:10004000FB000000FB000000FB000000FB000000C4
:10005000FB000000FB000000FB000000FB000000B4
:10006000FB000000FB000000FB000000FB000000A4
:10007000FB000000FB000000FB000000FB00000094
:10008000FB000000FB000000FB000000FB00000084
:10009000FB000000FB000000FB000000FB00000074
:1000A000FB000000FB000000FB000000FB00000064
:1000B000FB000000FB000000FB000000FB00000054
:1000C000FB000000FB000000FB000000DFF80CD08C
:1000D00000F02AF8004800476D1D0000C01C001009
:1000E0000648804706480047FEE7FEE7FEE7FEE7D2
:1000F000FEE7FEE7FEE7FEE7FEE7FEE78506000017
:10010000CD00000040EA01039B0703D009E008C9C5
:10011000121F08C0042AFAD203E011F8013B00F8CC
:10012000013B521EF9D27047064C074D06E0E068CD
:1001300040F0010394E8070098471034AC42F6D32E
:10014000FFF7C8FF4C2500006C25000070B5054680
:1001500040F6FF7401E0601E84B2FF2002F02CF92B
:10016000A84201D0002CF6D10CB9FF2070BD0020B0
:10017000FCE770B5002401E0601C84B2B4F5706F38
:10018000FADB002404E0FF2002F016F9601C84B2C0
:100190000A2CF8DB002500BF95220021084600F05C
:1001A0005FF80446681CC5B2012C01D0C82DF3DBF2
:1001B000C82D01D1012070BD0020FCE770B50546B7
:1001C0000E46012000F03AFA0C480078042800D0CE
:1001D0006D0200222946112000F042F804460CB1BD
:1001E000204670BD01225102304600F009F8044655
:1001F0000CB12046F5E70020F3E7000000000010F6
:1002000070B504460E4615464FF400101349C863F6
:10021000FE20FFF79BFF28B14FF400100F498863C1
:10022000012070BD04E0FF2002F0C6F82070641CBD
:100230003000A6F101018EB2F5D1FF2002F0BCF82A
:10024000FF2002F0B9F8012D05D168050349886344
:10025000FF2002F0B1F80020E3E7000000C0092011
:100260002DE9F04105460C46164600274FF40010D4
:100270001D498863FF2002F09FF8FF2002F09CF8E0
:10028000FF2002F099F84FF400101749C86345F0B9
:10029000400002F091F8200E02F08EF8C4F30740FF
:1002A00002F08AF8C4F3072002F086F8E0B202F008
:1002B00083F8304602F080F804E0781CC7B2C82FFB
:1002C00000DD05E0FF2002F077F88046FF28F4D03B
:1002D00000BF4FF4001004498863FF2002F06CF85F
:1002E0004046BDE8F081000000C0092002E008C8D7
:1002F000121F08C1002AFAD170477047FFFFFFFFA5
:100300007CB501F0FDFF042000F098F94FF40010D7
:100310006A498863FFF72DFF08B101207CBD4FF4C7
:1003200000106649C86387224FF4D571082000F099
:10033000C9F80446052C53D10120614908704005D5
:100340005E498863FF2002F037F8002500BF0022D5
:1003500011463720FFF784FF0446FF2C01D12046C9
:10036000DCE7002211462920FFF77AFF0446681CCB
:1003700085B214B1B5F5C87FE9DBB5F5C87F15D1F5
:10038000002500BF002211460120FFF769FF044647
:10039000681C85B214B1B5F5C87FF3DBB5F5C87F2D
:1003A00001D10120BAE7002045490870012000F082
:1003B00045F9FF2002F000F8952200213B20FFF7CD
:1003C0004FFF04460CB12046A8E795224FF4007178
:1003D0001020FFF745FF0446002C6DD020469DE716
:1003E000012C69D1FF2001F0E7FF8DF80000FF200C
:1003F00001F0E2FF8DF80100FF2001F0DDFF8DF834
:100400000200FF2001F0D8FF8DF8030060052B49A2
:100410008863FF2001F0D0FF002500BF00221146B5
:100420003720FFF71DFF0446012C01D0204675E759
:1004300000224FF080412920FFF712FF0446C82D0B
:1004400001DD20466AE7002CE8D1002211463A205F
:1004500000F038F804462CB14FF4001017498863B7
:1004600020465BE7FF2001F0A7FF8DF80000FF208A
:1004700001F0A2FF8DF80100FF2001F09DFF8DF833
:100480000200FF2001F098FF8DF803004FF40010E8
:100490000A498863FF2001F08FFF9DF8000010F0EB
:1004A000400F03D004200649087002E002200449EE
:1004B0000870012000F0C2F820462FE700C0092094
:1004C000000000102DE9F04105460C4616460027B5
:1004D000FF2001F071FFFF2001F06EFF4FF40010CC
:1004E0001349C86345F0400001F066FF200E01F09B
:1004F00063FFC4F3074001F05FFFC4F3072001F07E
:100500005BFFE0B201F058FF304601F055FF04E018
:10051000781CC7B2C82F00DD05E0FF2001F04CFFBA
:100520008046FF28F4D000BF4046BDE8F0810000BF
:1005300000C009202DE9F04105460E462E480078FE
:10054000042800D06D02002229461820FFF788FEFB
:10055000044614B12046BDE8F0814FF4001027494D
:10056000C863FF2001F028FFFF2001F025FFFF20D6
:1005700001F022FFFE2001F01FFF002705E016F822
:10058000010B01F019FF781C87B2B7F5007FF6DB8D
:10059000FF2001F011FFFF2001F00EFFFF2001F00E
:1005A0000BFF044604F01F00052805D04FF400108F
:1005B000124988632046CEE74FF000080DE008F1AD
:1005C00001001FFA80F84FF6FE70804505DD4FF4FC
:1005D00000100A4988630120BDE7FF2001F0ECFE0E
:1005E0000028ECD04FF4001004498863FF2001F08C
:1005F000E3FE0020AFE700000000001000C009206B
:1006000000200B4908600B48807840F00100094940
:1006100088700748006840F04040054908603C2069
:10062000486040200449C8602020086070470000EE
:1006300000C0024000C0092000000240FE210F4A15
:10064000D160052818D2DFE800F003070B0F130074
:1006500002210B4A11610FE00421094A11610BE0EC
:100660000821074A116107E01021054A116103E0E2
:10067000FA21034A116100BF00BF70470000024029
:100680000080084020204349086000BF41480068BE
:1006900010F0400FFAD003203F4908604FF00000EF
:1006A0003E49C1F8A8013E4908604FF001003D49AC
:1006B00008603D483D4908604FF0AA003C49086089
:1006C0004FF0550008604FF001003A4908604FF0C4
:1006D000AA00374908604FF055003049C1F88C0036
:1006E00000BF3548006810F0806FFAD00320314910
:1006F00008604FF0AA002949C1F88C004FF055005E
:100700002B49086000BF2C48006810F0407FFAD0E9
:1007100023202A4908604FF0AA002049C1F8AC0004
:100720004FF05500264908604FF001002549086048
:100730004FF0AA00224908604FF055001749C1F850
:10074000AC0000BF2048006810F4806FFAD003208E
:100750001C4908604FF0AA001049C1F8AC004FF0E6
:1007600055001749086000BF1748006810F4407F23
:10077000FAD01648164908604FF000000749C1F842
:10078000C8010846006820F4704040F480400860CA
:1007900070470000A0C10F4004C10F4000C00F40CF
:1007A000ACC10F400CC10F406300050084C00F4076
:1007B0008CC00F4080C00F4088C00F40A4C00F40C5
:1007C000ACC00F40A0C00F40A8C00F40DE87280477
:1007D000C4C00F401149096841F08071104AC2F845
:1007E000C41010490968C2F8AC110F49096841F4F6
:1007F000A0010D4A11604FF083010C4A11734FF0B4
:100800009C004FEA10211171114608704FF003014E
:1008100011734FF00701117270470000C4C00F4000
:1008200000C00F40ACC10F4000C002400080094032
:10083000014600BF0448007D10F0200FFAD0C8B276
:10084000014A1070704700000080094000B503465F
:1008500003E013F8010BFFF7EBFF18780028F8D13D
:1008600000BD002001E001C1121F002AFBD170472A
:1008700070B504460D4600202071401E20632946B5
:10088000204601F0FBFB08B1032070BDB4F8320232
:10089000A0F52A41553901D00220F6E7D4F86A00C4
:1008A00020F07F400749884201D10020EDE7D4F8CD
:1008B000860020F07F400349884201D10020E4E710
:1008C0000120E2E746415400024600E0521C107845
:1008D00010B110788842F9D1107870470246891E0D
:1008E0009069801E884201D8002070479378D06AB2
:1008F00001FB0300F9E72DE9F04704468946B9F109
:10090000000F06D1E76817B1A069B84215D80127D2
:1009100013E04946204601F01EF90646022E02D297
:100920000120BDE8F087701C01D13046F9E7A069CD
:10093000B04201D93046F4E74F463D4600BF6D1C3A
:10094000A069A84204D80225BD4201D90020E8E7E9
:100950002946204601F0FFF8064606B909E0701C5A
:1009600001D0012E01D13046DBE7BD42E7D10020A6
:10097000D7E700BF6FF070422946204601F097FB91
:100980008046B8F1000F08D1B9F1000F05D02A4612
:100990004946204601F08BFB8046B8F1000F0BD191
:1009A000E5602069401C0FD02069401E20616079FD
:1009B00040F00100607107E0B8F1010F02D14FF083
:1009C000FF3000E0012005462846AAE72DE9F35F45
:1009D0000198D0F8008001E008F1010898F80000C3
:1009E0002F28F9D098F800005C28F5D00098856988
:1009F0000B222021284601F037FB00263746B1465E
:100A00004FF0080B18F809002E2825D100BF4846E2
:100A100009F1010918F800402E2C02D1B9F1030F99
:100A200000D303E038467F1C2C54F0E700BF2F2C86
:100A300006D05C2C04D0202C02DD0620BDE8FC9FF3
:100A400008EB090101980160202C01DC242000E062
:100A50002020E8720020F1E700BF484609F10109B3
:100A600018F80040202C03DD2F2C01D05C2C00D185
:100A700056E02E2C01D05F450CD3BBF1080F01D1FD
:100A80002E2C01D00620D9E708274FF00B0BB0061B
:100A9000060EE2E7802C01DB46F00306812C01DB29
:100AA0009F2C03DDE02C20DBFC2C1EDC484609F1EA
:100AB000010918F800A0BAF1400F02DBBAF17E0F6D
:100AC00005DDBAF1800F06DBBAF1FC0F03DCABF1F8
:100AD0000100B84201D80620B0E738467F1C2C54EC
:100AE00038467F1C05F800A019E0214620A0FFF73A
:100AF000EBFE08B10620A1E7412C04DB5A2C02DCF6
:100B000046F0020608E0612C06DB7A2C04DC46F095
:100B10000106A4F12000C4B238467F1C2C549CE787
:100B200000BF08EB090101980160202C01DC0420C2
:100B300000E0002004460FB906207FE72878E5286A
:100B400001D105202870BBF1080F01D1B006060EB7
:100B500006F00300012801D144F0100406F00C0057
:100B6000042801D144F00804EC72002066E700007C
:100B7000222A2B2C3A3B3C3D3E3F5B5D7C7F0000B4
:100B80002DE9F04104460E460021204600F00FF901
:100B90000546EDB9002700BF2169206801F06EFA13
:100BA000054605B113E060690078E52802D0606968
:100BB000007820B9781C0746B04201D107E0002731
:100BC0000121204600F038F80546002DE4D000BF92
:100BD000042D00D107252846BDE8F0812DE9F0411C
:100BE00004460021204600F0E2F8054615B12846EB
:100BF000BDE8F08100BF2169206801F03FFA054699
:100C000005B116E0666937780FB9042511E0F07A6E
:100C100010F0080F06D10B223046A16901F0FAF955
:100C200000B906E00021204600F006F80546002D38
:100C3000E1D000BF2846DBE72DE9F04104468846B5
:100C4000E088461C3004000C01D0206910B9042053
:100C5000BDE8F08121684889C11700EBD1614911D5
:100C6000B6FBF1F201FB1261002971D12069401C31
:100C70002061E06828B920680089B04268D8042063
:100C8000E6E721684889C11700EBD1614911B6FB3D
:100C9000F1F122689278521E114259D1E168206820
:100CA00000F059FF0546012D01D80220D0E7681C4D
:100CB00001D10120CCE720688069A84242D8B8F170
:100CC000000F01D10420C3E7E1682068FFF713FE9D
:100CD00005460DB90720BBE7012D01D10220B7E77A
:100CE000681C01D10120B3E7206801F0B5FB08B111
:100CF0000120ADE721684A8901F13400002101F0AB
:100D0000B3F929462068FFF7E9FD21680863002749
:100D10000EE0012021680871206801F09DFB08B1F8
:100D2000012095E72068006B401C216808637F1C48
:100D300020688078B842ECD82068006BC01B21681E
:100D4000086300BFE56029462068FFF7C7FD206102
:100D5000E68021684889C11700EBD1614911B6FBD3
:100D6000F1F201FB12612268343202EB4111616140
:100D700000206DE770B5044601212046FFF700FF13
:100D8000054695B92169206801F078F9054665B9ED
:100D900020220021606901F067F90B22D4E90501E6
:100DA00001F04BF9012021680871284670BD2DE93A
:100DB000F04104460E46E680A568012D03D0206868
:100DC0008069A84202D80220BDE8F0812DB92068D0
:100DD0000078032801D12068856A45B92068008918
:100DE000B04201D80220EFE72068876A24E021683A
:100DF0004889C11700EBD16149112268927801FB43
:100E000002F812E02946206800F0A5FE0546681C9D
:100E100001D10120D8E7022D03D320688069A842C0
:100E200001D80220D0E7A6EB08064645EAD22946BB
:100E30002068FFF753FD0746E5600FB90220C3E7BE
:100E400021684889C11700EBD1614911B6FBF1F166
:100E50003944216121684889C11700EBD1614911EA
:100E6000B6FBF1F201FB12612268343202EB411150
:100E700061610020A8E7000010B504460CB1012014
:100E800010BDFFF73DFA0848007818B9012007495E
:100E9000087005E00548007820F00100034908705B
:100EA00002480078ECE7000000000010010000108C
:100EB00030B504460CB1042030BD1748007810F05E
:100EC000010F01D00320F7E701250F291ED2DFE82B
:100ED00001F0080A0C111D1D1D1D1D1D13151719EC
:100EE0001B00002514E0002512E04FF40070108074
:100EF00000250DE000250BE0002509E0002507E0B6
:100F0000002505E0002503E0002501E0042500BFE1
:100F100000BF2846D0E70000010000102DE9F04195
:100F200006460D4614461F4629462046FFF746F959
:100F300010B90020BDE8F0810120FBE7014609B1AE
:100F40000120704701480078FBE700000100001015
:100F50002DE9F04104460F4615461E4604B916B960
:100F60000420BDE8F0810848007810F0010F01D09E
:100F70000320F6E739462846FFF7DCFA08B90020D7
:100F8000EFE70120EDE700000100001070B5054615
:100F9000284600F0D0FA044634B9284601F082FA17
:100FA00004460CB900202860204670BD2DE9FC479E
:100FB00007468846914600253E4615E06B460122CD
:100FC00001A9484600F0CFF90098012800D00FE0B1
:100FD0009DF804400D2C00D106E006F8014B6D1C75
:100FE0000A2C00D104E000BFA8F10100A842E5DC12
:100FF00000BF0020307015B13846BDE8FC870020E6
:10100000FBE72DE9F1478BB000F034FE8246012268
:101010000BA904A800F0E0FB0546002D6ED101A845
:101020000A9004A80B9900F03FFD054605B9082574
:10103000042D05D10A98C07A10F0200F00D00625A3
:10104000042DEBD100210498FFF755FC064600253E
:1010500006B90725012E00D10225701C00D10125FB
:101060001DB9049801F0F8F90546002D52D131461A
:101070000498FFF733FC8046049800F13404049888
:1010800042890021204600F0EFFF0B22202120465C
:1010900000F0EAFF2E2020701020E072C4F816A0A5
:1010A0003146204601F098F92022214604F1200023
:1010B00000F0C3FF2E2084F82100DDF8189004987A
:1010C0000078032804D10498806A484500D1A946D5
:1010D000494604F1200001F07FF90498877816E072
:1010E0000498C0F8308008F10108012004990871C3
:1010F000049801F0B1F905460DB10AE025E0049825
:1011000042890021204600F0AFFF781EC7B2002FB1
:10111000E6D100BF1DB904A8FFF72CFE054625B196
:101120003146049801F094F80FE0099C1020E07219
:10113000C4F816A03146204601F04EF9012004996A
:101140000871049801F04CF9054628460CB0BDE83A
:10115000F0870000F7B582B016460398019001A809
:1011600000F0A6FD0546002D02DA0B2005B0F0BD0B
:101170000E4850F825400CB100202070029810B1A4
:101180000020029908700949029841F82500029848
:1011900008B1012E01D00020E8E7002203A902A82F
:1011A00000F01AFB07463846E0E70000A01A0010DE
:1011B0002DE9F7438AB0044616461CB909200DB044
:1011C000BDE8F0830020206006F01F0626F0010233
:1011D0000BA903A800F000FB0746002F7CD1CDF837
:1011E00024D003A80B9900F05FFC0746089D0FB9B7
:1011F00005B9062716F01C0F42D04FB1042F03D1BA
:1012000003A8FFF7B7FD074646F00806089D09E06A
:10121000E87A10F0110F01D0072703E016F0040F51
:1012200000D008275FBB16F0080F28D000F022FD81
:101230008146C5F80E900020E872E86129460398BF
:1012400000F08AFD80460021284601F0C5F8012003
:1012500003990871B8F1000F11D00398D0F83090BD
:101260004146039800F0F4FF074647B9A8F1010092
:101270000399C8604946039800F000FF07460EE056
:101280006FB9E87A10F0100F01D0042707E016F0CC
:10129000020F04D0E87A10F0010F00D0072747B9F9
:1012A00016F0080F01D046F020060398006BE061AD
:1012B00025628FB9A6710020E0712946039800F0DD
:1012C0004BFD2061E869E0600020A060A061039808
:1012D00020602068C088A080384670E730B595B09F
:1012E00004460D460295002003900490214602A872
:1012F00000F087FF039800280DDB01AB05A9DDE9AD
:10130000020200F05EF930B901990398884202D1D7
:10131000049815B030BD4FF0FF30FAE730B595B006
:1013200004460D46029500200390049004E014F852
:10133000011B02A800F065FF20780028F7D1039870
:1013400000280DDB01AB05A9DDE9020200F039F947
:1013500030B901990398884202D1049815B030BD84
:101360004FF0FF30FAE72DE9FF4F85B004461546F0
:101370009A46DDF818B00020CAF80000204601F0B7
:1013800091F80490049818B1049809B0BDE8F08F62
:10139000E07908B1E079F8E7A07910F0010F01D108
:1013A0000720F2E7D4E90210401A02900298854221
:1013B00000D9029DBAE021684989A068B0FBF1F22A
:1013C00001FB1200002877D121684989A068B0FB91
:1013D000F1F021688978491E084000F0FF09B9F151
:1013E000000F17D1A06810B92069039004E061696B
:1013F000206800F0B0FB03900398022802D202207C
:10140000E071C2E70398401C02D10120E071BCE703
:101410000398606161692068FFF760FA064616B9B3
:101420000220E071B1E74E4420684089B5FBF0F836
:10143000B8F1000F2DD009EB0800216889788842A7
:1014400003D920688078A0EB0908216848784346D2
:1014500032465946FFF762FD10B10120E07194E772
:10146000A07910F0400F0FD0A069801B40450BD22F
:10147000A169891B23685B8901FB03B021684A8944
:1014800004F1240100F0D9FD2068408900FB08F731
:1014900042E0A069B04220D0A07910F0400F10D0F7
:1014A00021684878012304F12401A269FFF750FD67
:1014B00018B10120E07168E710E0A07920F0400049
:1014C000A071216848780123324604F12401FFF716
:1014D00025FD10B10120E07157E7A6612168498917
:1014E000A068B0FBF1F201FB1200216849890F1AD4
:1014F000AF4200D92F4621684989A068B0FBF1F2BC
:1015000001FB120104F1240008443A46014601900F
:10151000584600F092FD00BFBB44A0683844A0606C
:10152000DAF800003844CAF80000ED1B002D7FF403
:1015300042AF002029E72DE9F0410446204600F0A3
:10154000B1FF0646002E3AD1A07910F0200F36D018
:10155000A07910F0400F0FD021684878012304F1E2
:101560002401A269FFF7F4FC10B10120BDE8F0816D
:10157000A07920F04000A071E169206800F07EFDB4
:101580000646E6B9256AE87A40F02000E872E0688D
:10159000E8612846216900F01FFF00F06BFB074659
:1015A000C5F8167000206882A07920F02000A07194
:1015B000012021680871206800F012FF06463046BD
:1015C000D4E72DE9FF4F83B0044615469B460498A7
:1015D00001900020CBF80000204600F063FF02904D
:1015E000029818B1029807B0BDE8F08FE07908B111
:1015F000E079F8E7A07910F0020F01D10720F2E7B7
:10160000A0682844A168884200D20025D3E0216860
:101610004989A068B0FBF1F201FB120000287DD1DE
:1016200021684989A068B0FBF1F021688978491EDA
:10163000084000F0FF0ABAF1000F24D1A06858B9A1
:10164000D4F81080B8F1000F0BD100212068FFF70B
:1016500052F98046206104E061692068FFF74BF988
:101660008046B8F1000F00D1A8E0B8F1010F02D117
:101670000220E071B7E718F1010002D10120E0710A
:10168000B1E7C4F81480A07910F0400F0FD02168A2
:101690004878012304F12401A269FFF759FC10B135
:1016A0000120E0719FE7A07920F04000A0716169FE
:1016B0002068FFF713F9064616B90220E07192E799
:1016C000564420684089B5FBF0F9B9F1000F31D0DC
:1016D0000AEB090021688978884203D9206880785C
:1016E000A0EB0A09216848784B4632460199FFF77A
:1016F0002FFC10B10120E07175E7A069801B4845FF
:1017000013D2A069831B2068B0F80AC0019803FBBC
:101710000C012068428904F1240000E01EE000F082
:101720008CFCA07920F04000A0712068408900FB6B
:1017300009F734E0A069B0420FD0D4E90201884231
:101740000BD2216848780123324604F12401FFF7C7
:10175000E5FB10B10120E07145E7A66121684989E8
:10176000A068B0FBF1F201FB1200216849890F1A51
:10177000AF4200D92F4621684989A068B0FBF1F239
:1017800001FB120104F1240008443A46009001993B
:1017900000F053FCA07940F04000A07100BF019818
:1017A00038440190A0683844A060DBF80000384459
:1017B000CBF80000ED1B002D7FF429AF00BFD4E96A
:1017C0000201884201D9A068E060A07940F02000C1
:1017D000A071002007E700002DE9F74F88B0002135
:1017E00008980160099800F063FA079007980028AC
:1017F00003DA0B200BB0BDE8F08FA749079851F82A
:1018000020400CB90C20F5E708980460207878B1E6
:101810006078FFF793FB804618F0010F08D10A9813
:1018200020B118F0040F01D00A20E3E70020E1E71F
:1018300000202070079860706078FFF71DFB8046DD
:1018400018F0010F01D00320D4E70A9820B118F056
:10185000040F01D00A20CDE7607804F10A020221CA
:10186000FFF726FB38B96089B0F5007F03DB60899C
:10187000B0F5006F01DD0120BCE7002739462046A6
:10188000FEF7F6FF0546012D01D025BB23E000261B
:101890000BE004F5F97101EB0610017909B18168DB
:1018A00000E000214DF82610761C042EF1D300260E
:1018B00006B1761E00BF5DF8267027B13946204676
:1018C000FEF7D6FF00E0022005461DB1701C06465B
:1018D0000428F0D300BF032D01D101208AE70DB108
:1018E0000D2087E7B4F83F006189884201D00D20C0
:1018F00080E7B4F84A90B9F1000F01D1D4F85890BC
:10190000C4F81C904420005DE070E078012804D009
:10191000E078022801D00D206CE7E07809FB00F99F
:101920004120005DA070A07818B1A078411E084247
:1019300001D00D205EE7B4F8450020816089C11711
:1019400000EBD1614911228992FBF1F301FB1321D4
:1019500009B10D204EE7B4F847B0BBF1000F01D13B
:10196000D4F854B04220005B0490049808B90D20CC
:1019700040E76089C11700EBD1614911228992FBD0
:10198000F1F2049949441144069106998B4501D21C
:101990000D202FE70698ABEB0000A178B0FBF1FA21
:1019A000BAF1000F01D10D2024E7012540F6F670B1
:1019B000824500D302254FF6F670824500D30325F9
:1019C0000AF10200A0612762049838446062069818
:1019D0003844E062032D09D1208908B10D2009E7C0
:1019E000206EA062A0698000059014E0208908B9EB
:1019F0000D20FFE6606A4844A062022D02D1A06972
:101A0000400007E0207E00F00100A16901EB4101E8
:101A100000EB510005906089401E059908446189DA
:101A2000B0FBF1F0E169884201D90D20E2E64FF008
:101A3000FF302061E06080206071032D1FD16420A1
:101A4000005B01281BD1791C204600F017FBB0B9C0
:101A500000206071B4F83202A0F52A4155390ED148
:101A60000E49606B88420AD10D49D4F818028842A9
:101A700005D1D4F81C022061D4F82002E060257062
:101A800008480088401C80B206490880E080002099
:101A9000606100BFAEE60000A01A00105252614122
:101AA00072724161020000102DE9F3410446019871
:101AB00000782F2803D0019800785C2805D1019880
:101AC000401C01900020A06002E020684069A060F6
:101AD00001980078202807D200212046FFF767F9F7
:101AE00005460020606133E000BF01A92046FEF7F3
:101AF0006DFF054605B12AE02046FFF76FF8054661
:101B0000A069C67A95B1042D0FD116F0200F08D028
:101B10000020A060606116F0040F00D1E5E7002509
:101B200003E016F0040F00D1052510E016F0040FB5
:101B300000D00CE06769F87A10F0100F01D105258C
:101B400005E03946206800F007F9A060CDE700BF46
:101B50002846BDE8FC812DE9F04704460D46022DDC
:101B600002D3A069A84202D80120BDE8F0872078FE
:101B7000012804D0022838D0032875D152E02E461F
:101B800006EB56066089B6FBF0F0616A00EB0109CE
:101B90004946204600F072FA00B167E06089B6FB62
:101BA000F0F100FB116104F13400475C761C6089A0
:101BB000B6FBF0F0616A00EB01094946204600F0EF
:101BC0005DFA00B152E06089B6FBF0F100FB1161F3
:101BD00004F13400405C47EA002715F0010F01D002
:101BE0003809C2E7C7F30B00BFE7B4F80A9009EB66
:101BF000D9704010B5FBF0F0616A00EB010A514664
:101C0000204600F03BFA00B130E068006189B0FB8B
:101C1000F1F201FB120104F1340001EB0008B8F805
:101C20000000A2E7B4F80A904FEAE97009EB90705F
:101C30008010B5FBF0F0616A00EB010A51462046C6
:101C400000F01CFA00B111E0A8006189B0FBF1F2CC
:101C500001FB120104F1340001EB0008D8F8000088
:101C600020F0704081E7FFE701207EE700BF4FF0E2
:101C7000FF307AE70EB5684600F020FBBDF80A0099
:101C8000A0F2BC7040069DF8081040EA41509DF853
:101C9000031040EA01409DF8021040EAC1209DF87F
:101CA000011040EA41109DF8001040EA51000EBDBD
:101CB000F0B503464FF0FF371868002846D0196882
:101CC00000E0491C0878212802D308783A28F8D186
:101CD00008783A2838D11C682078651C2C46A0F179
:101CE00030020A2A08D28C4206D1082A2AD2174684
:101CF000481C0146186025E00022491C00BFDFF89F
:101D000050C05CF822601C6800BF16F8010B14F884
:101D1000015B612D05DB7A2D03DCA5F1200C0CF0B5
:101D2000FF0508B1A842F0D008B98C4205D002F1F5
:101D3000010C6246BCF1080FE1D3082A01D2174614
:101D4000196000BF3846F0BD024807783846FAE708
:101D5000DC240000040000100246488B1378032B9B
:101D600002D18B8A40EA03407047000010B59CB056
:101D700018223EA116A8FEF7C5F9FEF783FCFEF770
:101D80003FFC00F0BDFAFEF725FD3EA0FEF75EFD2C
:101D900041A0FEF75BFD47A0FEF758FD4BA0FEF704
:101DA00055FD4FA0FEF752FD0020FFF765F8012812
:101DB00003D150A0FEF74AFD21E053A0FEF746FDF7
:101DC00055A0FEF743FD5848007830B1012808D0EF
:101DD00002280AD0042810D10BE054A0FEF736FDEB
:101DE0000CE054A0FEF732FD08E05DA0FEF72EFDEA
:101DF00004E068A0FEF72AFD00E000BF00BF00225B
:101E000072A17348FFF7A6F9012272A17648FFF785
:101E1000CFF9044614B120461CB010BD02E001A861
:101E2000FEF714FD704A522101A8FFF7BFF8002801
:101E3000F5D16D48FFF7AAF86CA0FFF7E2F80A2287
:101E40006DA17348FFF7B4F904460CB12046E3E7EF
:101E50006F4916A8FFF762FA6D496320FFF73EFA53
:101E60006B48FFF793F800BFFEE700000A68656C57
:101E70006C6F0A20746573742074657374207465C4
:101E8000737400007777772E4B68616E686F692EE8
:101E9000766E0D0A000000004E585031373634205F
:101EA0006364636172642074657374696E670D0A9C
:101EB00000000000417574686F723A205068616DCF
:101EC00020546865204C6F6E670D0A00436F6D707B
:101ED000616E793A204B68616E68686F690D0A001F
:101EE000436F7079726967687420323031340D0A3B
:101EF00000000000436172642063616E206E6F74A5
:101F000020696E69740D0A00436172642069732050
:101F100072656164790D0A0043617264207479709E
:101F2000653A200D0A000000000000104D4D430DE1
:101F30000A00000056657273696F6E20312E78209A
:101F40005374616E6461726420436170616369748B
:101F50007920534420636172642E0D0A0000000052
:101F600056657273696F6E20322E30206F72206C4E
:101F700061746572205374616E64617264204361A0
:101F800070616369747920534420636172642E0D1B
:101F90000A00000056657273696F6E20322E302081
:101FA0006F72206C6174657220486967682F65588C
:101FB00074656E646564204361706163697479203F
:101FC000534420636172642E0D0A0000303A000011
:101FD00050120010303A2F4D555349432F486F6D22
:101FE000652E747874000000080000103132303320
:101FF0003230313400000000303A2F313230333289
:102000003031342F3133323236302E747874000050
:102010002C080010F0B503461C460D46002000BFFA
:102020001600A2F1010207D014F8017B15F801CBCC
:10203000A7EB0C063000F3D0F0BD70B503460C469C
:102040001846214604E00D680560001D091D121F99
:10205000042AF8D203E011F8015B00F8015B1500D7
:10206000A2F10102F7D170BD30B5034601E003F8DB
:10207000011B1400A2F10102F9D130BD70B5044674
:102080000D46206BA84210D0204600F0E5F908B1BB
:10209000012070BD607801232A4604F13401FEF767
:1020A0003DFF08B10120F4E725630020F1E72DE9A9
:1020B000F05F04460D469046022D02D3A069A84267
:1020C00001D802279AE02078012804D002284ED0B7
:1020D00003287CD168E0A94609EB59096089B9FB5E
:1020E000F0F0616A00EB010A51462046FFF7C6FF97
:1020F000074607B17FE06089B9FBF0F100FB119161
:1021000004F134000E1815F0010F05D008F0FF019E
:10211000307861F31F1000E04046307009F101098A
:10212000012020716089B9FBF0F0616A00EB010ABF
:1021300051462046FFF7A2FF074607B15BE06089E2
:10214000B9FBF0F100FB119104F134000E1815F009
:10215000010F02D0C8F3071007E0307800F0F0005C
:10216000C8F3072101F00F010843307043E0B4F8D1
:102170000AA00AEBDA704010B5FBF0F0616A00EBE0
:10218000010B59462046FFF779FF074607B132E0B9
:1021900068006189B0FBF1F201FB120104F1340027
:1021A0000E18A6F8008026E0B4F80AA04FEAEA70FC
:1021B0000AEB90708010B5FBF0F0616A00EB010B48
:1021C00059462046FFF75AFF07460FB113E010E0CB
:1021D000A8006189B0FBF1F201FB120104F13400A7
:1021E0000E18306800F0704040EA0808C6F8008019
:1021F00001E0022700BF00BF012020713846BDE882
:10220000F09FF8B504460E460A2E03D10D21204654
:10221000FFF7F7FF6568002D00DAF8BD28466D1C52
:1022200004F10C010E543D2D0CDB6B462A46206850
:10223000FFF7C7F90098A84201D1002001E04FF054
:10224000FF3005466560A068401CA06000BFE4E761
:102250002DE9F04104460E46022E02D3A069B04299
:1022600001D8022727E0002721E031462046FFF76A
:1022700072FC054605B91DE0012D01D1022719E0C8
:10228000681C01D1012715E0002231462046FFF7E6
:102290000EFF074607B10DE02069401C06D02069FB
:1022A000401C2061607940F0010060712E46A069F9
:1022B000B042DAD800BF3846BDE8F0810F4991F846
:1022C000201001700D4991F8241041700B4991F8CC
:1022D00028108170094991F82C10C170074991F8B4
:1022E000301001710549898EC180044991F8381078
:1022F00001720249898F418170470000004002400D
:102300002748006840F400102649C1F8C400264858
:10231000006A40F40010244908620846406B40F40B
:10232000001048632148C0682049C8601E48006EFC
:1023300040F080601C4908660846406F20F08060CD
:1023400048671A48C06820F440701849C8600846B9
:10235000C06840F44070C8600846C06820F470301F
:10236000C8600846C06840F47030C8600D48D0F8B6
:10237000AC0120F440600B49C1F8AC010846D0F82C
:10238000AC0140F480600A4908604FF0FA00094946
:1023900008614FF0070008604FF002004860704786
:1023A000C4C00F4000C00F4000C0092000C0024060
:1023B000ACC10F400080084001460648816000BF64
:1023C0000448C06810F0100FFAD102488068C0B20B
:1023D000704700000080084041830A0C82827047E9
:1023E00070B50446204600F037F805466DBB2078EE
:1023F000032823D16079012820D16289002104F1CA
:102400003400FFF731FE4AF65521A4F83212104885
:1024100060631049C4F818122169C4F81C12E168FD
:10242000C4F82012206A401C20636078012304F164
:102430003401226BFEF78CFD002060716078002271
:102440001146FEF735FD00B10125284670BD00009C
:10245000525261417272416170B504462079F8B1FF
:10246000256B607801232A4604F13401FEF770FDE4
:1024700008B1012070BD00202071606A281AE1694E
:1024800088420DD2E67809E0E069054460780123CE
:102490002A4604F13401FEF75BFD761E022EF3D2CC
:1024A0000020E7E770B505462C464CB1206838B1EE
:1024B0002068007820B12068C088A188884201D0B7
:1024C000092070BD21684878FEF738FD10F0010F33
:1024D00001D00320F5E70020F3E7000047250000C6
:1024E0003F250000442500002D2500003625000072
:1024F00028250000312500003A25000000040002D4
:1025000000018000400020001000080004000200CC
:102510000000008000400020001000080040002063
:1025200000100008000400025553423100534431AA
:102530000055534232005344320055534233004E4B
:10254000414E440043460052414D00006C250000BE
:102550000000001008000000EC02000074250000DC
:1025600008000010B81C0000620800000001000014
:042570000000000067
:04000005000000CD2A
:00000001FF
